:020000040800F2
:100000004004002001010008090100080B0100085C
:100010000D0100080F010008110100080000000098
:1000200000000000000000000000000013010008B4
:100030001501000800000000170100081901000860
:100040001B0100081B0100081B0100081B01000820
:100050001B0100081B010008490100081B010008E2
:100060001B0100081B0100081B0100081B01000800
:100070001B0100081B0100081B0100081B010008F0
:100080001B0100081B0100081B0100081B010008E0
:100090001B0100081B0100081B0100085F0100088C
:1000A0001B0100081B0100081B0100081B010008C0
:1000B000C10500081B010008DD0500081B01000840
:1000C0001B0100081B0100081B0100081B010008A0
:1000D0001B010008FD0600081B0100081B010008A9
:1000E0001B0100081B0100081B010008DFF80CD0F1
:1000F00000F018F800480047350A000840040020C6
:100100000648804706480047FEE7FEE7FEE7FEE7B1
:10011000FEE7FEE7FEE7FEE7FEE7FEE76105000813
:10012000ED000008064C074D06E0E06840F00103D2
:1001300094E8070098471034AC42F6D3FFF7DAFF93
:100140003C0D00085C0D000810B5012000F018F807
:1001500020B1012000F00EF800F056FC10BD10B5E3
:10016000202000F00DF820B1202000F003F800F06E
:100170004BFC10BD014908607047000014040140A9
:10018000014600200022074B1B6803EA0102054BD1
:1001900014331B680B4013B10AB1012000E00020AA
:1001A00070470000000401402DE9F041024600259F
:1001B0000026002000230024002791F803C00CF043
:1001C0000F0591F803C00CF0100CBCF1000F03D028
:1001D00091F802C04CEA050591F800C0BCF1000F8F
:1001E00031D0146800202BE04FF0010C0CFA00F322
:1001F000B1F800C00CEA03069E4220D183004FF004
:100200000F0C0CFA03F7BC4305FA03FC4CEA040498
:1002100091F803C0BCF1280F06D14FF0010C0CFA85
:1002200000FCC2F814C00AE091F803C0BCF1480F0A
:1002300005D14FF0010C0CFA00FCC2F810C0401CB4
:100240000828D1D31460B1F800C0BCF1FF0F34DD31
:10025000546800202EE000F1080C4FF0010808FA65
:100260000CF3B1F800C00CEA03069E4221D18300D2
:100270004FF00F0C0CFA03F7BC4305FA03FC4CEAF1
:10028000040491F803C0BCF1280F05D100F1080C5B
:1002900008FA0CF8C2F8148091F803C0BCF1480FBA
:1002A00007D100F1080C4FF0010808FA0CF8C2F869
:1002B0001080401C0828CED35460BDE8F081014670
:1002C000886880B2704702460020D3680B400BB1AB
:1002D000012000E0002070474161704701617047D4
:1002E00070B5002100230F22C47804B3154C246894
:1002F00004F4E064C4F5E064210AC1F10403CA40D7
:10030000447804FA03F184781440214309010E4C27
:100310000678A155047804F01F050124AC40057847
:100320006D11AD0005F1E025C5F8004109E0047844
:1003300004F01F050124AC40044D0678761145F801
:10034000264070BD0CED00E000E400E080E100E03C
:1003500002490143024A1160704700000000FA059B
:100360000CED00E029B1064AD2690243044BDA6180
:1003700004E0034AD2698243014BDA61704700000E
:100380000010024029B1064A92690243044B9A6167
:1003900004E0034A92698243014B9A61704700006E
:1003A0000010024030B500210022002400232D4D12
:1003B0006D6805F00C0121B1042905D0082923D16D
:1003C00005E0294D056022E0274D05601FE0254D21
:1003D0006D6805F47012234D6D6805F480340225B4
:1003E00005EB92421CB9214D554305600BE01D4DB4
:1003F0006D6805F400351DB11C4D5543056002E0E4
:10040000194D5543056002E0174D056000BF00BF60
:10041000144D6D6805F0F0010909154D6B5C056818
:10042000DD4045600F4D6D6805F4E061090A104D2F
:100430006B5C4568DD4085600A4D6D6805F4605170
:10044000C90A0B4D6B5C4568DD40C560054D6D68A4
:1004500005F44041890B074D6B5CC568B5FBF3F5AE
:10046000056130BD0010024000127A0000093D0015
:10047000160000202600002010B500F001F810BD85
:100480000CB50020019000903348006840F48030A3
:100490003149086000BF3048006800F40030009027
:1004A0000198401C0190009818B90198B0F5A06F10
:1004B000F1D12948006800F4003010B1012000900B
:1004C00001E0002000900098012843D123480068F3
:1004D00040F01000214908600846006820F0030041
:1004E00008600846006840F0020008601A4840684A
:1004F000194948600846406848600846406840F42A
:10050000806048600846406820F47C1048600846D7
:10051000406840F4E81048600846006840F0807089
:10052000086000BF0C48006800F000700028F9D097
:100530000948406820F003000749486008464068C1
:1005400040F00200486000BF0348406800F00C0023
:100550000828F9D10CBD0000001002400020024024
:1005600010B51348006840F00100114908600846C2
:100570004068104908400E494860084600680E4926
:1005800008400B4908600846006820F48020086095
:100590000846406820F4FE0048604FF41F00886061
:1005A000FFF76AFF4FF000600449086010BD0000CB
:1005B000001002400000FFF8FFFFF6FE08ED00E02B
:1005C00010B50121880700F02CF828B10121880717
:1005D00000F018F800F018FA10BD000010B5012165
:1005E000064800F01EF840B10121044800F00AF866
:1005F00003480088401C0249088010BD00080040E4
:1006000000000020CA430282704721B1028842F0F4
:100610000102028004E002884FF6FE731A40028055
:10062000704730B50246002000230024158A05EAF1
:100630000103958905EA010413B10CB1012000E022
:10064000002030BD1AB183890B43838102E0838986
:100650008B43838170470000002202881D4B984223
:100660000ED01D4B98420BD0B0F1804F08D01B4BE1
:10067000984205D01A4B984202D01A4B984204D1A6
:100680004FF68F731A404B881A43174B984207D086
:10069000164B984204D04FF6FF431A40CB881A43BA
:1006A00002808B8883850B8803850A4B98420BD088
:1006B000094B984208D00E4B984205D00D4B9842FA
:1006C00002D00D4B984201D10B7A0386012383821D
:1006D00070470000002C014000340140000400403D
:1006E00000080040000C00400010004000140040D2
:1006F00000400140004401400048014010B540F274
:100700002551154800F054F828B3134800F00CF9AF
:100710001249134A1278885411480078401C104935
:100720000870084600780A2815DB0C4840784528F0
:1007300011D14FF480510B48FFF7D0FD00200A493A
:10074000088000BF084800886428FBDB4FF4805114
:100750000448FFF7C1FD10BD0038014036000020FD
:1007600010000020000C01400000002001F4007285
:10077000B2F5007F00D100BFCA430280704721B1AB
:10078000828942F40052828104E082894DF6FF732F
:100790001A408281704702460020B1F5007F00D1E7
:1007A00000BF13880B400BB1012000E00020704710
:1007B00070B50246002400230025002040F66A168A
:1007C000B14200D100BFC1F3421501F01F03012661
:1007D00006FA03F3012D02D19689334006E0022D7B
:1007E00002D1168A334001E0968A33400C1201266A
:1007F00006FA04F41688344013B10CB1012000E06D
:10080000002070BDF0B5034600240026002500201E
:1008100040F66A17B94200D100BF1846C1F342142E
:1008200001F01F06012707FA06F5012C01D10C3053
:1008300004E0022C01D1103000E014301AB1076836
:100840002F43076002E00768AF430760F0BD000078
:100850002DE9F04786B005460E460024A24600BFAB
:10086000A1460027B08900B100BF2F462C8A4CF664
:10087000FF700440F08804432C82AC894EF6F310DC
:100880000440B08831890843718908430443AC812E
:10089000AC8A4FF6FF400440B0890443AC8201A803
:1008A000FFF780FD1F48874202D1DDF810A001E06C
:1008B000DDF80CA0A88900F4004040B10AEBCA00A2
:1008C00000EB0A1031684900B0FBF1F807E00AEBD1
:1008D000CA0000EB0A1031688900B0FBF1F864200F
:1008E000B8FBF0F004012009642101FB1089A889FC
:1008F00000F4004040B1322000EBC900B0FBF1F041
:1009000000F00700044308E0322000EB09106421E6
:10091000B0FBF1F000F00F0004432C8106B0BDE8FD
:10092000F08700000038014001468888C0F30800C5
:100930007047C1F30802828070472DE9F0410746F5
:100940000D461646002400BF0FE000BF8021384648
:10095000FFF721FF0028F9D0295D3846FFF7E9FFAE
:1009600080213846FFF702FF641CB442EDDBBDE88E
:10097000F08102E008C8121F08C1002AFAD17047AE
:100980007047002001E001C1121F002AFBD170470F
:1009900017480078174908701748007848701748BA
:1009A0000068082802D10020144908601348006834
:1009B000401C10B9072011490860104800780D4903
:1009C00088700F480068082802D100200C49086090
:1009D0000B4800780749C8700A4800780871002061
:1009E00048718871C87108722A2048720846704799
:1009F000020000202C00002003000020080000203E
:100A00000C0000200400002010B54FF400510848ED
:100A1000FFF759FC0446012C04D141030448FFF7B9
:100A20005BFC04E04FF400510148FFF757FC10BD98
:100A3000001001408AB001211020FFF7A3FC4FF401
:100A40000050B4490880032088701020C870B24854
:100A5000FFF7AAFB01210820FFF794FC4FF4805018
:100A6000AC490880032088701020C870AB48FFF79D
:100A70009BFB4FF40051A848FFF730FC4FF4805126
:100A8000A648FFF729FC01210420FFF76BFC48F67C
:100A9000A040ADF804000020ADF806000120ADF83C
:100AA00008000020ADF80A008DF80C0001A99C4850
:100AB000FFF7D2FD01219A48FFF7A7FD0122114659
:100AC0009748FFF7BFFD4FF44070FFF741FC1E2031
:100AD0008DF8100000208DF811008DF81200012013
:100AE0008DF8130004A8FFF7FBFB012144F204007A
:100AF000FFF748FC4FF4165005900C20ADF81E008F
:100B00000020ADF81A00ADF81800ADF81C00ADF8E3
:100B1000200005A98348FFF79BFE012240F22551E2
:100B20008048FFF76FFE252000F01F020121914051
:100B30004209920002F1E022C2F8001100BF012137
:100B40007848FFF71CFE4FF40070ADF82400182021
:100B50008DF8270003208DF8260009A97248FFF7B9
:100B600023FB4FF48060ADF8240004208DF82700AB
:100B700003208DF8260009A96B48FFF715FB042018
:100B8000ADF8240018208DF8270003208DF82600EA
:100B900009A96548FFF708FB0820ADF824000420E8
:100BA0008DF8270003208DF8260009A95E48FFF77D
:100BB000FBFA01210420FFF7E5FBFA2055490880E4
:100BC000032088704820C8705748FFF7EDFA0020CE
:100BD00056490860564908605649087098E05248DE
:100BE000FFF76DFB00F00800C8B9FFF70DFF504894
:100BF0000068401E4E49086007204F490870FFF703
:100C0000C7FE04460A2221464648FFF796FE00BF6B
:100C10004548FFF754FB00F008000028F8D0424890
:100C2000FFF74DFB00F01000C8B9FFF7EDFE3F489D
:100C30000068401E3D49086007203F490870FFF7E3
:100C4000A7FE04460A2221463648FFF776FE00BF7B
:100C50003248FFF734FB00F010000028F8D032488B
:100C6000FFF72DFB00F02000C8B9FFF7CDFE2F489D
:100C70000068401C2D49086007202F490870FFF7C5
:100C800087FE04460A2221462648FFF756FE00BF8B
:100C90002548FFF714FB00F020000028F8D0224878
:100CA000FFF70DFB00F04000C8B9FFF7ADFE20488C
:100CB0000068401C1E49086007201F490870FFF7A4
:100CC00067FE04460A2221461648FFF736FE00BF9B
:100CD0001548FFF7F4FA00F040000028F8D0124859
:100CE000FFF7EDFA00F0800090B902201249087079
:100CF000FFF74EFE04460A2221460A48FFF71DFE72
:100D000000BF0948FFF7DBFA00F080000028F8D0A8
:100D100065E700001200002000100140000C0140B7
:100D20000008004000380140000801400800002091
:100D30000C00002010000020030000205C0D0008C3
:100D4000000000202C00000072090008880D000837
:100D50002C0000201404000082090008000001009B
:100D60000000000000000000000000000000000083
:100D70000000000000000102030401020304060752
:080D8000080902040608000046
:04000005080000ED02
:00000001FF
